:020000040800F2
:1000000028050020A9010008C70F0008170F0008E5
:10001000C50F0008F1010008B51400080000000039
:10002000000000000000000000000000A110000817
:10003000F301000800000000E90F0008A310000809
:10004000C3010008C3010008C3010008C301000880
:10005000C3010008C3010008C3010008C301000870
:10006000C3010008C3010008C3010008C301000860
:10007000C3010008C3010008C3010008C301000850
:10008000C3010008C3010008C3010008000000000C
:10009000000000000000000000000000C301000894
:1000A000C3010008C3010008C3010008C301000820
:1000B000C3010008C3010008C3010008C301000810
:1000C000C3010008C3010008C3010008C301000800
:1000D000C3010008C3010008C301000800000000BC
:1000E000C3010008C3010008C301000800000000AC
:1000F000000000000000000000000000C301000834
:1001000000000000C3010008C3010008C30100088B
:1001100000000000000000000000000000000000DF
:10012000C3010008C3010008C3010008C30100089F
:10013000C3010008000000000000000000000000F3
:10014000000000000000000000000000C3010008E3
:10015000C3010008C3010008C3010008C30100086F
:10016000C3010008C30100080000000000000000F7
:10017000000000000000000000000000000000007F
:1001800000000000C30100080000000000000000A3
:10019000C3010008DFF80CD000F018F80048004751
:1001A000D514000828050020064880470648004767
:1001B000FEE7FEE7FEE7FEE7FEE7FEE7FEE7FEE717
:1001C000FEE7FEE75111000895010008064C074DB7
:1001D00006E0E06840F0010394E807009847103417
:1001E000AC42F6D3FFF7DAFFCC150008EC15000897
:1001F000FEE7704710B5040002D0607910B106E048
:10020000012010BD00202071204600F007F80220D8
:10021000607101206071002010BD000008B5006809
:100220000649884208D10648016841F480510160BE
:10023000006800F48050009008BD000000300240CB
:100240003038024031B500F0D5F8009C0546601CFE
:1002500000D0641C00F0CEF8401BA042FAD338BD99
:100260002DE9F84FDFF860B100224FF001084FF0A0
:10027000030A4FF00F090BF1040E00BF0B6808FAD8
:1002800002F42340A3426ED14D68022D01D0122DFD
:100290000ED1D50800EB850CDCF820505607F70E80
:1002A00009FA07F6B5430E69BE402E43CCF820602C
:1002B000066855000F790AFA05FC07F0030726EADD
:1002C0000C06AF40374307604E68012E05D0022E62
:1002D00003D0112E01D0122E0ED18668CF6826EAE7
:1002E0000C06AF40374387604668A6430C79C4F3D9
:1002F0000014944034434460C6688C6826EA0C06B7
:10030000AC403443C4604C68E40056D52F4C25689B
:1003100045F480452560246822F0030504F48044F8
:1003200000942B4C2E19D6F8084895072F0F09FA80
:1003300007F5AC43274DA84201D1002515E0264D15
:10034000A84201D1012510E0244DA84201D1022587
:100350000BE0234DA84201D1032506E0214DA84220
:1003600002D1042501E028E00725BD402543C6F859
:100370000858DBF800405D464E689C43F60300D504
:100380001C432C60DEF8004075464E689C43B60363
:1003900000D51C432C600C4D08352C684E689C43DE
:1003A000F60200D51C432C60074D0C352C684E68B6
:1003B0009C43B60200D51C432C60521C102AFFF44B
:1003C0005DAFBDE8F88F0000003C014044380240BA
:1003D00000300140000002400004024000080240DA
:1003E000000C0240001002400AB18161704709040C
:1003F000FBE700000148006870470000040000208F
:1004000002480168491C0160704700000400002098
:100410000B4810B5016841F400710160016841F4B6
:1004200080610160016841F480710160032000F087
:1004300069F8002000F006F800F018F8002010BD60
:10044000003C024010B5044607484FF47A7100683A
:10045000B0FBF1F000F07FFC00222146501E00F0BE
:1004600031F8002010BD00000000002010B503206E
:1004700000F048F8002211466FF00B0000F022F85F
:10048000002211466FF00A0000F01CF8002211460D
:100490006FF0090000F016F800221146501F00F01E
:1004A00011F800221146101F00F00CF8002211462E
:1004B000901E00F007F80022BDE810401146501EC3
:1004C000AFF30080F0B40E4B1B680C46C3F302235D
:1004D000C3F10705042D00D90425191D072901D2F0
:1004E000002300E0DB1E012606FA05F1491E21402B
:1004F00099409E40761E16403143F0BC00F064BD2A
:100500000CED00E0064900F0070208684FF6FF0313
:10051000184040EA0220034A104308607047000078
:100520000CED00E00000FA052DE9F047DFF86491DA
:1005300005460F46D9F8000000F00F01F8B28046DA
:10054000B94208D2014689F80010D9F8000000F03D
:100550000F00B84274D128784F4C800705D5206829
:10056000A96820F0F000084320602878C00759D01F
:1005700049496868083901281AD002281BD0032885
:1005800019D00968890700295ADA216821F0030186
:1005900001432160FFF72EFF6968064641F288306B
:1005A000012911D002291DD00329824627D035E028
:1005B00009688903E7E709688901E4E7FFF71AFF9B
:1005C000811B514501D926E082462068C0F3810095
:1005D0000128F3D126E000BFFFF70CFF811B514536
:1005E00001D918E082462068C0F381000228F3D1C7
:1005F00018E000BFFFF7FEFE811B51450BD82068B5
:10060000C0F381000328F5D10CE000BFFFF7F2FE34
:10061000811B514502D90320BDE8F087206810F006
:100620000C0FF3D1D9F80010484601F00F01B94280
:1006300008D980F80080006800F00F00B84201D0AF
:100640000120E9E72878400705D52068E96820F40B
:10065000E050084320602878000706D52068296903
:1006600020F4604040EAC100206000F051F82168A9
:10067000F02292FAA2F201F0F001B2FA82F2D14035
:10068000064A515CC840064908600020FFF7DAFEC0
:100690000020C1E7003C024008380240B4150008C1
:1006A00000000020014800687047000000000020A2
:1006B00008480949006809684FF4E05292FAA2F22A
:1006C00001F4E051B2FA82F2D140044A515CC840D0
:1006D000704700000000002008380240C4150008E0
:1006E00008480949006809684FF4604292FAA2F28A
:1006F00001F46041B2FA82F2D140044A515CC84030
:10070000704700000000002008380240C4150008AF
:1007100030B51948006810F00C01184812D0184C78
:1007200004290ED008290DD11349091F0A6802F0C7
:100730003F030A68550247F6C07204D5B4FBF3F0D4
:1007400003E0204630BDB0FBF3F00B6809681340AE
:1007500092FAA2F2B2FA82F2D34058434FF44032F6
:1007600092FAA2F201F44031B2FA82F2D140491C6D
:100770004900B0FBF1F030BD083802400024F4001D
:10078000001BB7002DE9F84F0546DFF8FC92007812
:10079000A9F1040BC007ABF1040449D0D9F800104B
:1007A0004846C1F38101012908D00068C0F38100E7
:1007B00002280AD1DBF80000400206D52068800339
:1007C00036D5686800286ED032E06868B0F5803FA2
:1007D00010D0B0F5A02F206810D020F48030206019
:1007E000206820F4802020606868A0B1FFF702FE36
:1007F00006460CE0206840F48030F4E740F48020A6
:100800002060F7E7FFF7F6FD801B642871D82068A9
:100810008003F7D50CE0FFF7EDFD064605E000BFCD
:10082000FFF7E8FD801B6428F0D820688003F7D428
:100830002878964F80074FF0010A4FF0000841D505
:10084000D9F80010484611F00C0F08D00068C0F32A
:10085000810002280AD1DBF80000400206D420689B
:10086000800713D5E86801281DD10FE0E868D8B1EA
:10087000C7F800A0FFF7BEFD064604E0FFF7BAFD8B
:10088000801B0228C2D820688007F7D52068F8228C
:1008900092FAA2F22969B2FA82F220F0F8009140AD
:1008A000084320600EE0ECE0C7F80080FFF7A2FDEF
:1008B000064604E0FFF79EFD801B022819D8206839
:1008C0008007F7D42878000724D57148696989B171
:1008D000C0F800A0FFF78EFD064604E0FFF78AFD92
:1008E000801B022805D868486C3000688007F5D561
:1008F00010E07AE0C0F80080FFF77CFD064604E0D7
:10090000FFF778FD801B02286FD85F486C300068C5
:100910008007F5D42878400753D55B483830016804
:1009200041F080510160006800F08050009059480B
:10093000016841F480710160FFF75CFD064604E048
:10094000FFF758FD801B02284FD852480068C005A9
:10095000F6D54D4EA868683601280FD005283068B6
:1009600010D020F001003060306820F004003060CA
:10097000A868B8B1FFF73EFD00900FE0306840F086
:100980000100F4E740F004003060F7E7FFF732FDC4
:100990000099411A41F2883081426AD83068800754
:1009A000F4D50EE0FFF726FD009007E0FFF722FDEB
:1009B0000099411A41F2883081425AD83068800744
:1009C000F4D4A869E8B3D9F80010C1F38101022971
:1009D00057D00228C7F8608003D0FFF70BFD05460B
:1009E0004AE0FFF707FD064605E042E0FFF702FD9B
:1009F000801B02283DD820688001F7D4D5E9070183
:100A0000084347F6C07292FAA2F2696AB2FA82F219
:100A10009140AA6A4FF0FF3303EB52024FF4403388
:100A200093FAA3F3B3FA83F39A40114308434FF0C8
:100A3000706292FAA2F2E96AB2FA82F29140084335
:100A400000E01CE0CBF80000C7F860A0FFF7D2FC84
:100A5000054604E0FFF7CEFC401B022809D82068B9
:100A60008001F7D50BE000BFFFF7C4FC401B022854
:100A700002D90320BDE8F88F20688001F4D400205B
:100A8000F8E70120F6E7000008380240000047427E
:100A9000800E47420070004070B5040005D000256C
:100AA000A56294F8510010B106E0012070BD84F8F1
:100AB0005050204600F030F8022084F851002068A1
:100AC000016821F040010160D4E901010843D4E943
:100AD00003121143084361690843218B01F400713B
:100AE0000843E1690843216A0843A16A0843216871
:100AF0000860A069042101EA1040616A0843216886
:100B000048602068C16921F40061C1616565012008
:100B100084F85100002070BD00B500680E4987B010
:100B2000884216D10D480021026842F480520260CA
:100B3000006800F480500590F02000900220CDE97C
:100B40000101032003900520049069460448FFF743
:100B500087FB07B000BD0000003001404438024070
:100B6000000002402DE9F84F044690F8500000269E
:100B70000A9F9A4693460D464FF0010801280ED071
:100B8000012084F85000FFF735FC814694F85100AD
:100B9000616801280CD0B1F5827F07D102E0022004
:100BA000BDE8F88FA16809B9042801D00226BDE08C
:100BB00055B1BBF1000F07D0BAF1000F04D094F883
:100BC0005100012802D004E00126AFE0052084F89E
:100BD000510000206065C4F838B0A4F83EA0A4F825
:100BE0003CA02563A4F836A0A4F834A02064606477
:100BF00020680168490603D4016841F040010160A2
:100C0000E068B0F5006F606804D0E8B3E08E0128BA
:100C10003BD06AE010B1E08E01282ED1216835F872
:100C2000020BC860E08E401EE08626E0B8F1000F9F
:100C30000DD0E08E58B120688168890707D535F856
:100C4000021BC160E08E401EE0864FF00008E08F7E
:100C500058B120688168C90707D0C0682BF8020B1B
:100C6000E08F401EE0874FF00108781C05D0FFF7A9
:100C7000C1FBA0EB0900B84246D2E08E0028D5D1D6
:100C8000E08F0028D2D136E0FFE7216815F8010B8C
:100C90000873E08E401EE08627E000BFB8F1000F29
:100CA0000DD0E08E58B120688168890707D515F806
:100CB000011B0173E08E401EE0864FF00008E08FBC
:100CC00058B120688168C90707D0C0680BF8010BCC
:100CD000E08F401EE0874FF00108781C05D0FFF739
:100CE00089FBA0EB0900B8420ED2E08E0028D5D1D6
:100CF000E08F0028D2D13B46012202212046CDF8C8
:100D0000009000F082F908B103260FE04A46394608
:100D1000204600F06AF918B101262020606505E040
:100D2000A06818B92068C16880680090012084F824
:100D30005100002084F85000304631E74FF0E021A8
:100D40000428086903D020F004000861704740F0CF
:100D50000400FAE7704710B5401EB0F1807F01D360
:100D6000012010BD4FF0E02460610F21601700F0FA
:100D70002BF90020A06107202061002010BD10B5D4
:100D8000FFF7E8FF10BD70B5040004D094F83900F7
:100D9000002510B106E0012070BD84F838502046CF
:100DA00000F022F8242084F839002068C16821F47A
:100DB0000051C160204600F0F5F92068016921F476
:100DC000904101612068416921F02A014161206858
:100DD000C16841F40051C160E563202084F8390006
:100DE00084F83A00002070BD30B50068164D02212D
:100DF00001220323072487B0A8420ED113480568B7
:100E000045F010050560006800F010000590C02056
:100E10008DE81F0069460E4811E00E4DA84210D122
:100E20000A48001F056845F400350560006800F4B5
:100E3000003005900C208DE81F0069460648FFF73A
:100E40000FFA07B030BD00000010014044380240E6
:100E50000004024000440040000002402DE9F84335
:100E6000044690F839001F4616460D46202850D1FA
:100E7000A5B19EB194F8380001284AD0012084F829
:100E800038004FF00008C4F83C80212084F8390075
:100E9000FFF7B0FAA6848146E68426E00120BDE88B
:100EA000F883E08C401EE084A0684B46B0F5805F7C
:100EB0004FF000024FF080012046009703D000F071
:100EC000C7FAE8B90DE000F0C3FAC8B9288821686C
:100ED000C0F308004860206908B16D1C05E0AD1C36
:100EE00003E0216815F8010B4860E08C0028D8D198
:100EF0004B46002240212046009700F0A9FA08B195
:100F00000320CCE7202084F8390084F838800020C2
:100F1000C5E70220C3E7FEE770B5174886B0002496
:100F2000016841F080010160016801F080010591D4
:100F3000016841F001010160016801F001010591C2
:100F4000016841F00201016000680C4E00F00200EF
:100F50004FF4E0650590002229463046FFF744FA39
:100F600001200095CDE90104694630460394FFF75E
:100F700077F906B070BD0000303802400000024032
:100F80000F4810B50D4901604FF482714160002196
:100F900081600122C160C0E904129204826138229A
:100FA000C2618022C0E9082181620A21C162FFF783
:100FB00073FD002800D0FEE710BD000000300140A6
:100FC0003C000020FEE770470907090E002806DAFA
:100FD00000F00F0000F1E02080F8141D704700F1D0
:100FE000E02080F800147047704738B50B46009237
:100FF00004460022802100F008F8002804D0606D2B
:1010000040F020006065032038BD2DE9F0411D4609
:1010100017460E460446DDF8188035E0681C33D0CC
:101020002DB1FFF7E7F9A0EB0800A8422CD3206808
:10103000416821F0E00141606068B0F5827F0BD12A
:10104000A068B0F5004F02D0B0F5806F04D12068E1
:10105000016821F040010160A06AB0F5005F0AD18B
:10106000206801684DF6FF72114001602068016838
:1010700041F400510160012084F85100002084F8FF
:1010800050000320BDE8F0812068806836EA000047
:1010900004D00020B842C1D10020F3E70120F9E7D5
:1010A000704710B5FFF7ACF9BDE81040FFF767BE19
:1010B00030B5254893B00024016841F080510160AB
:1010C000006800F0805011902048016821F44041F0
:1010D00041F4004101600068022500F44040119095
:1010E00001200090000401908001CDE906500C2001
:1010F0000890A820099004200A900B906846FFF7FA
:1011000041FB00B1FEE70F20CDE90C054FF4805004
:10111000CDE90E4001210CA81094FFF705FA00B1AB
:10112000FEE7FFF7BFFA4FF47A71B0FBF1F0FFF77B
:1011300012FE0420FFF702FE00221146501EFFF7A8
:10114000C1F913B030BD00004038024000700040CB
:101150001048016841F4700101600F48016841F0D6
:10116000010101600C4A00210832116002680B4B3A
:101170001A400260031D0A4A1A60026822F48022A3
:10118000026005480C300160024958068039086049
:101190007047000088ED00E000380240FFFFF6FED7
:1011A000103000242DE9F04104460068016921F463
:1011B0004052E168114301612168C86849F20C623C
:1011C00090432369A268E5691A4363692B431A4374
:1011D0000243CA602168486920F44072A069104344
:1011E0004861E1696425B1F5004F9748974A216845
:1011F0004FF032083FD0914201D081427CD1FFF7BD
:101200006FFA00EBC00101EB001061688900B0FBD0
:10121000F1F6FFF765FA00EBC00101EB0010616821
:101220008900B0FBF1F0B0FBF5F06FF01801484316
:1012300006EB800108EB0110B0FBF5F000F0F006C2
:10124000FFF74EFA00EBC00101EB00106168890066
:10125000B0FBF1F0B0FBF5F006EB0016FFF740FA3B
:1012600000EBC00101EB001061688900B0FBF1F7F1
:10127000FFF736FAD2E0914201D081423DD1FFF72B
:101280002FFA00EBC00101EB001061684900B0FBD0
:10129000F1F0B0FBF5F00601FFF722FA00EBC00118
:1012A00001EB001061684900B0FBF1F7FFF718FA95
:1012B00000EBC00101EB001061684900B0FBF1F0E8
:1012C000B0FBF5F06FF01801484307EB800108EB25
:1012D000C100B0FBF5F000F0F80006EB4006FFF7A8
:1012E000FFF900EBC00101EB001061684900B0FBA1
:1012F000F1F7FFF7F5F93CE055E0FFF7D9F900EB1E
:10130000C00101EB001061684900B0FBF1F0B0FBD7
:10131000F5F00601FFF7CCF900EBC00101EB00107E
:1013200061684900B0FBF1F7FFF7C2F900EBC001BB
:1013300001EB001061684900B0FBF1F0B0FBF5F083
:101340006FF01801484307EB800108EBC100B0FBC8
:10135000F5F000F0F80006EB4006FFF7A9F900EB06
:10136000C00101EB001061684900B0FBF1F7FFF725
:101370009FF900EBC00101EB001061684900B0FB70
:10138000F1F0B0FBF5F06FF01801484307EB800176
:1013900008EBC100B0FBF5F000F007002168304415
:1013A0008860BDE8F081FFF783F900EBC00101EB35
:1013B000001061688900B0FBF1F6FFF779F900EBE6
:1013C000C00101EB001061688900B0FBF1F0B0FBD7
:1013D000F5F06FF01801484306EB800108EB0110AF
:1013E000B0FBF5F000F0F006FFF762F900EBC0018A
:1013F00001EB001061688900B0FBF1F0B0FBF5F083
:1014000006EB0016FFF754F900EBC00101EB0010EA
:1014100061688900B0FBF1F7FFF74AF900EBC00102
:1014200001EB001061688900B0FBF1F0B0FBF5F052
:101430006FF01801484307EB800108EB0110B0FB87
:10144000F5F000F00F00A9E7001401400010014082
:101450002DE9F041984617460E460446069D1DE0CC
:10146000681C1BD02DB1FEF7C5FFA0EB0800A842F9
:1014700014D92068C16821F4D071C1602068416925
:1014800021F001014161202084F8390084F83A00FC
:10149000002084F838000320BDE8F081206800684F
:1014A00036EA000004D00020B842D9D00020F3E78B
:1014B0000120F9E7FEE702E008C8121F08C1002A70
:1014C000FAD170477047002001E001C1121F002AC5
:1014D000FBD1704708B5FEF79BFFFFF7E9FDFFF76B
:1014E0001BFD2F482D494FF4E13500240160C0E970
:1014F00001540C26C460C0E904468461C461FFF74E
:1015000042FC00B1FEE7FFF73BFD27492548086094
:101510000846FEF76FFE00B1FEE721482349403838
:101520000160C0E90154C460C0E904468461C4613B
:10153000FFF729FC00B1FEE7194A1B496424403239
:1015400012231631A2F1D8000094FFF70BFB164AC4
:101550001348921F0623911F98380094FFF702FB4F
:10156000134D4FF480764FF47A74012231462846A9
:10157000FEF73AFF2046FEF765FE00223146284678
:10158000FEF732FF2046FEF75DFE0749044823467A
:101590000E2208314038FFF761FCE6E700440040C6
:1015A000D400002000300240140000200010014050
:1015B00000000240000000000000000001020304DF
:1015C000060708090000000001020304EC150008EA
:1015D000000000203C000000B61400082816000897
:1015E0003C000020EC040000C61400080024F400B5
:1015F00000000000A5000000000000000000000046
:10160000000000000000000048656C6C6F2C576FF4
:10161000726C64210A00FFFFFFFFFFFFFFFF9EE7E0
:08162000FFFFFFFFFFFFFF00C9
:040000050800019559
:00000001FF
